{
  "_format": "hh3-artifact-1",
  "contractName": "PaymentAccess",
  "sourceName": "contracts/PaymentAccess.sol",
  "abi": [
    {
      "inputs": [
        {
          "internalType": "uint256",
          "name": "_price",
          "type": "uint256"
        }
      ],
      "stateMutability": "nonpayable",
      "type": "constructor"
    },
    {
      "inputs": [
        {
          "internalType": "uint256",
          "name": "sent",
          "type": "uint256"
        },
        {
          "internalType": "uint256",
          "name": "required",
          "type": "uint256"
        }
      ],
      "name": "InsufficientPayment",
      "type": "error"
    },
    {
      "inputs": [],
      "name": "NotOwner",
      "type": "error"
    },
    {
      "inputs": [],
      "name": "NothingToWithdraw",
      "type": "error"
    },
    {
      "inputs": [],
      "name": "PriceMustBeGreaterThanZero",
      "type": "error"
    },
    {
      "inputs": [],
      "name": "ReentrancyNotAllowed",
      "type": "error"
    },
    {
      "anonymous": false,
      "inputs": [
        {
          "indexed": true,
          "internalType": "address",
          "name": "account",
          "type": "address"
        },
        {
          "indexed": false,
          "internalType": "uint256",
          "name": "price",
          "type": "uint256"
        }
      ],
      "name": "AccessGranted",
      "type": "event"
    },
    {
      "anonymous": false,
      "inputs": [
        {
          "indexed": true,
          "internalType": "address",
          "name": "payer",
          "type": "address"
        },
        {
          "indexed": false,
          "internalType": "uint256",
          "name": "amount",
          "type": "uint256"
        },
        {
          "indexed": false,
          "internalType": "uint256",
          "name": "newTotalPaid",
          "type": "uint256"
        }
      ],
      "name": "PaymentReceived",
      "type": "event"
    },
    {
      "anonymous": false,
      "inputs": [
        {
          "indexed": true,
          "internalType": "address",
          "name": "owner",
          "type": "address"
        },
        {
          "indexed": false,
          "internalType": "uint256",
          "name": "amount",
          "type": "uint256"
        }
      ],
      "name": "Withdrawn",
      "type": "event"
    },
    {
      "inputs": [],
      "name": "contractBalance",
      "outputs": [
        {
          "internalType": "uint256",
          "name": "",
          "type": "uint256"
        }
      ],
      "stateMutability": "view",
      "type": "function"
    },
    {
      "inputs": [
        {
          "internalType": "address",
          "name": "",
          "type": "address"
        }
      ],
      "name": "hasAccess",
      "outputs": [
        {
          "internalType": "bool",
          "name": "",
          "type": "bool"
        }
      ],
      "stateMutability": "view",
      "type": "function"
    },
    {
      "inputs": [],
      "name": "owner",
      "outputs": [
        {
          "internalType": "address",
          "name": "",
          "type": "address"
        }
      ],
      "stateMutability": "view",
      "type": "function"
    },
    {
      "inputs": [],
      "name": "payForAccess",
      "outputs": [],
      "stateMutability": "payable",
      "type": "function"
    },
    {
      "inputs": [],
      "name": "price",
      "outputs": [
        {
          "internalType": "uint256",
          "name": "",
          "type": "uint256"
        }
      ],
      "stateMutability": "view",
      "type": "function"
    },
    {
      "inputs": [
        {
          "internalType": "address",
          "name": "",
          "type": "address"
        }
      ],
      "name": "totalPaid",
      "outputs": [
        {
          "internalType": "uint256",
          "name": "",
          "type": "uint256"
        }
      ],
      "stateMutability": "view",
      "type": "function"
    },
    {
      "inputs": [],
      "name": "withdraw",
      "outputs": [],
      "stateMutability": "nonpayable",
      "type": "function"
    },
    {
      "stateMutability": "payable",
      "type": "receive"
    }
  ],
  "bytecode": "0x60c060405234801561000f575f5ffd5b506040516106ad3803806106ad83398101604081905261002e9161005a565b805f0361004e576040516323a3620960e01b815260040160405180910390fd5b3360805260a052610071565b5f6020828403121561006a575f5ffd5b5051919050565b60805160a0516105f16100bc5f395f81816101c1015281816101ed0152818161024d015261036501525f8181610138015281816103a50152818161043901526104b301526105f15ff3fe608060405260043610610071575f3560e01c80638da5cb5b1161004c5780638da5cb5b1461012757806395a078e814610172578063a035b1fe146101b0578063da9f11fd146101e3575f5ffd5b80633ccfd60b146100c15780633dd6d533146100d75780638b7afe2e14610115575f5ffd5b366100bd5760025460ff161561009a5760405163dc76216f60e01b815260040160405180910390fd5b6002805460ff191660011790556100b133346101eb565b6002805460ff19169055005b5f5ffd5b3480156100cc575f5ffd5b506100d561039a565b005b3480156100e2575f5ffd5b506101026100f1366004610569565b60016020525f908152604090205481565b6040519081526020015b60405180910390f35b348015610120575f5ffd5b5047610102565b348015610132575f5ffd5b5061015a7f000000000000000000000000000000000000000000000000000000000000000081565b6040516001600160a01b03909116815260200161010c565b34801561017d575f5ffd5b506101a061018c366004610569565b5f6020819052908152604090205460ff1681565b604051901515815260200161010c565b3480156101bb575f5ffd5b506101027f000000000000000000000000000000000000000000000000000000000000000081565b6100d5610522565b7f00000000000000000000000000000000000000000000000000000000000000008110801561023257506001600160a01b0382165f9081526020819052604090205460ff16155b1561027d5760405163b99e2ab760e01b8152600481018290527f0000000000000000000000000000000000000000000000000000000000000000602482015260440160405180910390fd5b6001600160a01b0382165f908152600160205260408120546102a0908390610596565b6001600160a01b0384165f81815260016020908152604091829020849055815186815290810184905292935090917f5677b5d4cf976ac32defbd95a6a5aaf0d1fee450a11fc26f3c11aae6e6c33d06910160405180910390a26001600160a01b0383165f9081526020819052604090205460ff16610395576001600160a01b0383165f8181526020819052604090819020805460ff19166001179055517fb4c6779ceb4a20f448e76a0e11f39bd183cff9c9dbac53df6bfcc202e2eb32f19061038c907f0000000000000000000000000000000000000000000000000000000000000000815260200190565b60405180910390a25b505050565b336001600160a01b037f000000000000000000000000000000000000000000000000000000000000000016146103e3576040516330cd747160e01b815260040160405180910390fd5b60025460ff16156104075760405163dc76216f60e01b815260040160405180910390fd5b6002805460ff19166001179055475f81900361043657604051630686827b60e51b815260040160405180910390fd5b5f7f00000000000000000000000000000000000000000000000000000000000000006001600160a01b0316826040515f6040518083038185875af1925050503d805f811461049f576040519150601f19603f3d011682016040523d82523d5f602084013e6104a4565b606091505b50509050806104b1575f5ffd5b7f00000000000000000000000000000000000000000000000000000000000000006001600160a01b03167f7084f5476618d8e60b11ef0d7d3f06914655adb8793e28ff7f018d4c76d505d58360405161050c91815260200190565b60405180910390a250506002805460ff19169055565b60025460ff16156105465760405163dc76216f60e01b815260040160405180910390fd5b6002805460ff1916600117905561055d33346101eb565b6002805460ff19169055565b5f60208284031215610579575f5ffd5b81356001600160a01b038116811461058f575f5ffd5b9392505050565b808201808211156105b557634e487b7160e01b5f52601160045260245ffd5b9291505056fea26469706673582212204025e771d20c3e12bf0b5094c03d719f6318de062c68fe1191d3ccaafc5cded764736f6c634300081c0033",
  "linkReferences": {},
  "deployedLinkReferences": {},
  "immutableReferences": {
    "41": [
      {
        "length": 32,
        "start": 312
      },
      {
        "length": 32,
        "start": 933
      },
      {
        "length": 32,
        "start": 1081
      },
      {
        "length": 32,
        "start": 1203
      }
    ],
    "43": [
      {
        "length": 32,
        "start": 449
      },
      {
        "length": 32,
        "start": 493
      },
      {
        "length": 32,
        "start": 589
      },
      {
        "length": 32,
        "start": 869
      }
    ]
  },
  "inputSourceName": "project/contracts/PaymentAccess.sol",
  "buildInfoId": "solc-0_8_28-03dab1c01a5533985c453f5585480bb7123a354f"
}